:04000000ADEF00F070
:1000080000C016F001C015F09EAA14D02E0E476E3F
:10001800000E486E2D504726D8B0482A7CD847C0D5
:10002800E1FF48C0E2FF00C0E6FF2D2A140E2D5C58
:0E003800D8B02D6A16C000F015C001F01100FE
:0A004600000EACB2010E006E1200B5
:0A005000000E9EBA010E006E1200B1
:10005A00AECF01F0ABA202D0AB98AB8801C000F0E2
:02006A00120082
:10006C0074CF01F071A202D07198718801C000F0B8
:02007C00120070
:0A007E00000E72B2010E006E1200B7
:0A008800000EA4BA010E006E120073
:10009200F250026EF29E0500FF6A0150FE6E0050A1
:0800A200FD6E02BEF28E120099
:0E00AA00ACB202D00000FCD746C0ADFF120081
:1000B800AA0E296E000E2A6E460E2B6E000E2C6EAE
:1000C8005A0E1D6E000E1E6E000E1F6E000E206E64
:1000D800500E216E000E226E000E236E000E246E4E
:1000E800460E256E000E266E000E276E000E286E38
:1000F800AC8A900EAB6E948E949C9EAA03D0AECF21
:0601080000F0FBD712001D
:10010E000900F5CFE6FF0006FBE10106F9E112005A
:0C011E001DC000F01EC001F0B5DF120093
:10012A00456A42C0E9FF43C0EAFFEECF44F04450BB
:10013A00000A0DE044C046F0B3DF452A4550422488
:10014A00E96E000E4320EA6EEECF44F0F0D71200BB
:10015A00530E176E740E186E610E196E720E1A6EA9
:10016A00740E1B6E1C6A2D6A0F013A6B3B6B956A03
:10017A00B886B06A670EAF6EAC8499DF020E0B6E5A
:10018A00040E0C6EBA0E0D6E0D2EFED70C2EFCD779
:10019A000B2EFAD70000170E426E000E436EC0DF18
:1001AA000D0E466E7DDF0A0E466E7ADFFF0E8C6EEE
:1001BA00020E0B6E040E0C6EBA0E0D6E0D2EFED7CD
:1001CA000C2EFCD70B2EFAD700008C6A9D8A9E9AB9
:1001DA00F28CF28E2D50000A0BE12E0EE96E000E03
:1001EA00EA6E2D50E926D8B0EA2AEECF8CFF0DD060
:1001FA002D04006E016A000E015A2E0E0024E96ECB
:0E020A00000E0120EA6EEECF8CFFE4D7FFD786
:020000040030CA
:0D000100231F3CFFBF81FF0FC00FE00F4029
:00000001FF
