:04000000BEEF00F05F
:1000080000C018F001C017F00CC016F00DC015F0B4
:10001800F2A05BD0F2A659D081A42AD081A41DD029
:10002800000E006E1A50005C02E11950640815E3D6
:10003800010E1924006E000E1A20016E00C019F07E
:1000480001C01AF0030E0C6E970E0D6E0D2EFED722
:100058000C2EFCD700000000E1D7000E1A5C02E16C
:10006800640E195C03E3010E216E02D0196A1A6A44
:1000780081A62AD081A61DD0000E006E1C50005CFF
:1000880002E11B50640815E3010E1B24006E000EEC
:100098001C20016E00C01BF001C01CF0030E0C6E8A
:1000A800970E0D6E0D2EFED70C2EFCD7000000000B
:1000B800E1D7000E1C5C02E1640E1B5C03E3010E39
:1000C800206E02D01B6A1C6AF290F2A205D080A0B2
:1000D80002D0010E1E6EF29218C000F017C001F097
:0A00E80016C00CF015C00DF0110059
:1000F200FF0E2214916E23C000F0016A00C090FF2F
:10010200FF0E24148D6E25C000F0016A00C08CFF22
:020112001200D9
:10011400D50E226E020E236EC00E246E030E256EC3
:04012400E6DF120000
:10012800FF0ED36E2D0E926E896A0C0E936E8A6A3C
:10013800D09EF28CF28EF286F290F288F292F18CD6
:10014800FF0EC16E080E9A6E800E996E470E866E6F
:10015800856A090E956EC30E966EFF0E986E976AA5
:04016800D5DF1200CD
:10016C000900F5CFE6FF0006FBE10106F9E11200FC
:10017C00196A1A6A1B6A1C6A1D6A1E6A1F6A206A3F
:10018C00216ACCDF21520CE080BC0AD0808CA20EFC
:10019C00226E030E236E160E246E030E256EA3DF45
:1001AC00205213E080BE11D0808E8088150E0B6E0D
:1001BC004B0E0C6EBE0E0D6E0D2EFED70C2EFCD7FC
:1001CC000B2EFAD7000080981D6A1E520DE0196A9A
:1001DC001A6A1B6A1C6A809897DF809E809C1D6A35
:1001EC00216A206A1E6A1F6A80AC21D080AE1FD0A3
:1001FC001F521DE1020E0A6E960E0B6ED80E0C6E7F
:10020C00080E0D6E0D2EFED70C2EFCD70B2EFAD72A
:10021C000A2EF8D700003B0E226E030E236E6B0ED7
:10022C00246E030E256E5FDF8098010E1F6EAAD719
:02023C00FFD7EA
:020000040030CA
:0D000100081F1E0E0181FF03C003E0034035
:00000001FF
