:0400000031EF00F0EC
:0A000800F2A202D01580F29211005E
:10001200070E0B6E170E0C6E6A0E0D6E0D2EFED7AE
:0C0022000C2EFCD70B2EFAD700001200A9
:10002E000B0E0B6E260E0C6E5D0E0D6E0D2EFED78C
:0E003E000C2EFCD70B2EFAD70000000012008B
:10004C008C82E1DF8C92EDDFECDF8C82DCDF8C923A
:06005C00E8DFE7DF1200FF
:1000620015900F01396B3B6B010E936E956A8C6A8A
:10007200F18CF292F288F28EFF0E8C6ED7DF8C6AD0
:0E008200C7DF15A002D0E1DF1590F6D7FFD73B
:020000040030CA
:0D000100321F3CFFBF81FF0FC00FE00F401A
:00000001FF
