:0400000042EF00F0DB
:10000800F2A012D01680F29081AE02D0070E156EC3
:1000180081AC02D0060E156E81AA02D0050E156EAF
:0A00280081A802D0040E156E11002D
:10003200020E0B6E860E0C6E990E0D6E0D2EFED7F5
:0A0042000C2EFCD70B2EFAD712008B
:10004C00030E0B6E8A0E0C6E550E0D6E0D2EFED71A
:0E005C000C2EFCD70B2EFAD70000000012006D
:10006A0017C08CFFE1DF8C6AECDFEBDF17C08CFF77
:0A007A00DBDF8C6AE6DFE5DF120031
:100084001690156A0F01396B3B6BFF0E936E956AE0
:100094008C6AF2866288628A628C628EF290F28E38
:1000A400FF0E8C6ED1DF8C6AC2DF16A027D018D069
:1000B400030E176ED8DF156A20D00C0E176ED3DF2F
:1000C400156A1BD0300E176ECEDF156A16D0C00E1F
:1000D400176EC9DF156A11D0AA0E176EC4DF0DD0D2
:1000E4001550040AE5E01550050AE7E01550060A24
:1000F400E9E01550070AEBE0EFD71690D1D7FFD708
:020000040030CA
:0D000100231F3CFFBF81FF0FC00FE00F4029
:00000001FF
